:100000000C9436000C944B000C944B000C944B0059
:100010000C944B000C944B000C944B000C944B0034
:100020000C944B000C944B000C944B000C944B0024
:100030000C944B000C944B000C944B000C944B0014
:100040000C944B000C944B000C944B000C944B0004
:100050000C944B002A02310238023F0246024D0244
:1000600054025B02610267026D02730211241FBE1B
:10007000CFE5D8E0DEBFCDBF10E0A0E6B0E0ECEB0E
:10008000FEE002C005900D92AC39B107D9F70E948D
:10009000D0020C945C070C94000023E023BF0AC03C
:1000A00083E882BF88B7816088BFA89508B600FE44
:1000B000FDCFC9019C0121503109892B89F713BE5D
:1000C0000895882321F088B3816088BB03C088B37A
:1000D0008E7F88BB88B3826088BB11BA80B388B337
:1000E000846088BB00000000000011BA80B398B3A0
:1000F0009B7F98BB0895662321F098B3916098BBCD
:1001000003C098B39E7F98BB98B39D7F98BB82BB7A
:100110008FEF81BB88B3846088BB000000000000C3
:1001200088B38B7F88BB0895CF93DF93C82FD62FDA
:1001300080E00E9461008823DCF36D2F8C2F0E94E9
:100140007B00DF91CF91089587B3816087BB87B330
:10015000826087BB87B3846087BB80E190E00E94A8
:100160004D0060E080E30E947B0085E090E00E940B
:100170004D0060E080E30E947B0081E090E00E94FF
:100180004D0060E08CE30E94940060E08CE00E94EF
:10019000940060E086E00E94940060E081E00E94AC
:1001A0009400089560E081E00E9494000895CF9348
:1001B000DF93C62F98E2899FC00D112460E082E092
:1001C0000E94940005C060E084E10E949400CD2F5D
:1001D000DFEFDC0FC111F7CFDF91CF91089561E020
:1001E0000E9494000895CF93DF93FC0104C061E066
:1001F0000E949400FE01EF01219680818111F7CFCA
:10020000DF91CF910895FC0185EE97E09183808383
:1002100082E090E09383828387E090E095838483FB
:1002200083E090E0978386838BE390E091878087DB
:10023000138612860895CF93DF9314BA15BA44B388
:1002400021E030E0F90102C0EE0FFF1F8A95E2F7CE
:10025000CF014E2B44BB95B38095892385BB84B3D6
:10026000EB0124960C2E02C0220F331F0A94E2F7F2
:10027000922F9095892384BB85B3282B25BB000042
:1002800081E090E00E944D0023B330E002C035953C
:100290002795CA95E2F781E020FD80E090E0DF91AC
:1002A000CF9108950F931F93CF93DF9300E010E059
:1002B00018C0BE01C8010E941B01892B49F0C8016A
:1002C000880F991F880F991F8C0F9D1F01960EC0D4
:1002D000219602C0C0E0D0E0C430D10554F30F5FD6
:1002E0001F4F04301105B4F380E090E0DF91CF910F
:1002F0001F910F910895FC01228533852F5F3F4F99
:10030000338722872C33310579F513861286808551
:100310009185019691878087CC9731F5118610865B
:10032000868197810196978386834897E9F417829F
:100330001682848195810196958384834F97A4F0DA
:1003400081E090E0958384838281938101969383F9
:1003500082830D974CF081E090E0938382838081CB
:1003600091810196918380830895EF92FF920F937C
:100370001F93CF93DF93CDB7DEB7A2970FB6F89454
:10038000DEBF0FBECDBF8C0160E080E00E94D700D1
:10039000F80181818F9380818F9385818F938481F0
:1003A0008F9383818F9382818F9381E790E09F93D6
:1003B0008F93CE0101967C019F938F930E947204CC
:1003C000F80183858F9382858F9381858F938085B4
:1003D0008F9387818F9386818F9385E890E09F9399
:1003E0008F938E010E5E1F4F1F930F930E94720416
:1003F00060E080E00E94D700C7010E94F30060E047
:1004000081E00E94D700C8010E94F3000FB6F89463
:10041000DEBF0FBECDBFA2960FB6F894DEBF0FBEF3
:10042000CDBFDF91CF911F910F91FF90EF90089575
:10043000DC011296ED91FC911397ED30F1050CF073
:1004400066C03197EC30F10508F053C0E65DFF4F10
:100450000C946C0414968D919C91159780970CF0D8
:1004600059C014968D919C9115974D970CF055C0DD
:1004700014968D919C91159780970CF051C014960D
:100480008D919C9115974F970CF04DC014968D91BE
:100490009C91159780970CF049C014968D919C9172
:1004A00015974F970CF045C014968D919C91159718
:1004B00080970CF041C014968D919C911597809770
:1004C000F4F514968D919C9115974F97DCF5149641
:1004D0008D919C9115978097C4F514968D919C9160
:1004E00015974F97ACF514968D919C911597809721
:1004F00094F58D919C911197992384F116968D9185
:100500009C91179749976CF180E090E0089580E006
:1005100090E0089580E090E0089580E090E00895F4
:1005200080E090E0089580E090E0089580E090E021
:10053000089580E090E0089580E090E0089580E0E4
:1005400090E0089580E090E0089580E090E00895C4
:1005500080E090E0089580E090E0089580E090E0F1
:10056000089581E090E00895FC01808591858C33A9
:10057000910544F0CC979187808786819781019679
:1005800097838683828593858C33910544F0CC973D
:1005900093878287808591850196918780870895CA
:1005A000CF93DF93CDB7DEB7AB970FB6F894DEBF2E
:1005B0000FBECDBF0E94A400CE0101960E94030190
:1005C000CE0101960E94B50181E1E0E6F0E0DE0196
:1005D0001D9601900D928A95E1F70E9452018C01BF
:1005E00003C00E9452018C0101151105D1F3EDE009
:1005F000F0E0EC0FFD1FE00FF11FF080FE8E0E9477
:10060000D2008F2D0E94EF000F2EF7E0EF2EF12C7D
:10061000F02D24C00E9452018C0101151105D1F763
:1006200003C00E9452018C0101151105D1F3E8E0CD
:10063000F0E0EE19FF09ADE0B0E0AC0FBD1FA00F78
:10064000B11F8C912EE130E02C0F3D1FE20FF31F04
:1006500080830E94EF0031E0E31AF108E114F10415
:10066000E1F68E8D90E0C0979C01220F331F880F1A
:10067000991F880F991F880F991F820F931F2F8D25
:1006800030E020533109820F931F9C838B8388A114
:1006900090E0C0979C01220F331F880F991F880F8D
:1006A000991F880F991F820F931F29A130E02053B3
:1006B0003109820F931F9E838D832AA130E020533E
:1006C000310988EE93E0289FA001299F500D389FA3
:1006D000500D11242BA130E02053310964E6629FB4
:1006E000C001639F900D1124480F591F2CA130E0C9
:1006F000C901C097BC01660F771F9C01220F331FF1
:10070000220F331F220F331FCB01820F931F840F41
:10071000951F2DA130E020533109820F931F9A833A
:10072000898360E081E00E94D70003C00E945201EB
:100730008C0101151105D1F703C00E9452018C01F3
:1007400001151105D1F3EDE0F0E0EC0FFD1FE00F16
:10075000F11F80818EA30E94EF000F2EF5E0EF2E97
:10076000F12CF02D24C00E9452018C0101151105BD
:10077000D1F703C00E9452018C0101151105D1F37C
:10078000E6E0F0E0EE19FF09ADE0B0E0AC0FBD1F10
:10079000A00FB11F8C9126E230E02C0F3D1FE20F1D
:1007A000F31F80830E94EF0031E0E31AF108E114A7
:1007B000F104E1F68EA190E0C0979C01220F331F57
:1007C000880F991F880F991F880F991F820F931FF9
:1007D0002FA130E020533109820F931F98878F8318
:1007E00088A590E0C0979C01220F331F880F991FA6
:1007F000880F991F880F991F820F931F29A530E03A
:1008000020533109820F931F9A8789878AA590E028
:10081000C0979C01220F331F880F991F880F991FC3
:10082000880F991F820F931F2BA530E020533109A9
:10083000820F931F9C878B87CE0101960E94B40282
:10084000CE0101960E941802892B69F460E081E0D4
:100850000E94D70084E990E00E94F30088EE93E0C4
:100860000E944D00BACECE0101960E94B50103C090
:100870000E9452018C0101151105D1F703C00E949D
:1008800052018C0101151105D1F3EDE0F0E0EC0F00
:10089000FD1FE00FF11F80818A32C9F403C00E945E
:1008A00052018C0101151105D1F70FC0CE0101963F
:1008B0000E94B50188EE93E00E944D00CE010196A2
:1008C0000E947B010E9452018C01012B79F388EE7A
:1008D00093E00E944D0081CEEE0FFF1F0590F49132
:1008E000E02D0994AEE0B0E0E8E7F4E00C943307C3
:1008F0000D891E8986E08C831A8309838FEF9FE719
:100900009E838D83AE01475E5F4F6F89788DCE01E8
:1009100001960E949404EF81F885E00FF11F108288
:100920002E96E4E00C944F07ABE0B0E0EAE9F4E087
:100930000C9425076C017B018A01FC011782168249
:10094000838181FFCCC1CE0101963C01F6019381E8
:10095000F70193FD859193FF81917F01882309F42D
:10096000BAC1853239F493FD859193FF81917F015E
:10097000853229F4B60190E00E948B06E7CF912CD6
:10098000212C312CFFE1F315D8F08B3279F038F4BB
:10099000803279F08332A1F4232D20611DC08D3285
:1009A00061F0803369F4232D216016C0832D8260AD
:1009B000382EE32DE4603E2E2AC0F32DF8601DC0D2
:1009C00037FC2DC020ED280F2A3040F08E32B9F4CC
:1009D00036FC81C1232D2064322E19C036FE06C09C
:1009E0008AE0989E200D1124922E11C0EAE02E9EDE
:1009F000200D1124222EF32DF0623F2E08C08C36DC
:100A000021F4832D8068382E02C0883641F4F70126
:100A100093FD859193FF81917F018111B3CF982F31
:100A20009F7D9554933028F40C5F1F4F9FE399836B
:100A30000DC0833631F0833771F0833509F059C02A
:100A400021C0F801808189830E5F1F4F8824839421
:100A5000912C530113C02801F2E04F0E511CF801F4
:100A6000A080B18036FE03C0692D70E002C06FEF38
:100A70007FEFC5010E9480064C018201F32DFF77B4
:100A80003F2E16C0280122E0420E511CF801A08022
:100A9000B18036FE03C0692D70E002C06FEF7FEFBA
:100AA000C5010E9475064C01F32DF0683F2E8201AE
:100AB00033FC1BC0822D90E088169906B0F4B60175
:100AC00080E290E00E948B062A94F4CFF50137FC77
:100AD000859137FE81915F01B60190E00E948B06FF
:100AE00021102A9421E0821A91088114910471F74F
:100AF000E8C0843611F0893641F5F80137FE07C0A9
:100B000060817181828193810C5F1F4F08C0608179
:100B10007181072E000C880B990B0E5F1F4FF32D70
:100B2000FF763F2E97FF09C090958095709561954F
:100B30007F4F8F4F9F4FF0683F2E2AE030E0A30198
:100B40000E94C706882E861845C0853731F4232DAC
:100B50002F7EB22E2AE030E025C0932D997FB92E4A
:100B60008F36C1F018F4883579F0B5C0803719F0A8
:100B7000883721F0B0C0E92FE061BE2EB4FE0DC071
:100B8000FB2DF460BF2E09C034FE0AC0292F266059
:100B9000B22E06C028E030E005C020E130E002C0FF
:100BA00020E132E0F801B7FE07C0608171818281E7
:100BB00093810C5F1F4F06C06081718180E090E0DF
:100BC0000E5F1F4FA3010E94C706882E8618FB2DBB
:100BD000FF773F2E36FE0DC0232D2E7FA22E8914C7
:100BE00058F434FE0BC032FC09C0832D8E7EA82E33
:100BF00005C0B82CA32C03C0B82C01C0B92CA4FE8E
:100C00000FC0FE01E80DF11D8081803321F49A2D83
:100C1000997EA92E09C0A2FE06C0B394B39404C065
:100C20008A2D867809F0B394A3FC11C0A0FE06C0FB
:100C3000B21488F4280C922C9B180EC0B21460F4E5
:100C4000B60180E290E00E948B06B394F7CFB21415
:100C500018F42B1802C0982C212CA4FE10C0B60149
:100C600080E390E00E948B06A2FE17C0A1FC03C0A7
:100C700088E790E002C088E590E0B6010CC08A2DBC
:100C8000867859F0A1FE02C08BE201C080E2A7FC89
:100C90008DE2B60190E00E948B06891438F4B6010B
:100CA00080E390E00E948B069A94F7CF8A94F30138
:100CB000E80DF11D8081B60190E00E948B06811045
:100CC000F5CF222009F442CEB60180E290E00E94E6
:100CD0008B062A94F6CFF6018681978102C08FEFAA
:100CE0009FEF2B96E2E10C944107FC0105906150C7
:100CF00070400110D8F7809590958E0F9F1F089532
:100D0000FC016150704001900110D8F780959095DA
:100D10008E0F9F1F08950F931F93CF93DF93FB01B7
:100D2000238121FD03C08FEF9FEF2CC022FF16C04F
:100D300046815781248135814217530744F4A081AD
:100D4000B1819D012F5F3F4F318320838C9326819A
:100D500037812F5F3F4F3783268314C08B01EC010F
:100D6000FB010084F185E02D0995892BE1F6D8017E
:100D700016968D919C911797019617969C938E933A
:100D80001697CE01DF91CF911F910F910895FA012F
:100D9000AA27283051F1203181F1E8946F936E7FBA
:100DA0006E5F7F4F8F4F9F4FAF4FB1E03ED0B4E0AB
:100DB0003CD0670F781F891F9A1FA11D680F791FEC
:100DC0008A1F911DA11D6A0F711D811D911DA11DFD
:100DD00020D009F468943F912AE0269F112430190D
:100DE000305D3193DEF6CF010895462F4770405DA8
:100DF0004193B3E00FD0C9F7F6CF462F4F70405D57
:100E00004A3318F0495D31FD4052419302D0A9F7B1
:100E1000EACFB4E0A6959795879577956795BA95AB
:100E2000C9F700976105710508959B01AC010A2E71
:100E300006945795479537952795BA95C9F7620F48
:100E4000731F841F951FA01D08952F923F924F92EC
:100E50005F926F927F928F929F92AF92BF92CF924A
:100E6000DF92EF92FF920F931F93CF93DF93CDB753
:100E7000DEB7CA1BDB0B0FB6F894DEBF0FBECDBFCB
:100E800009942A88398848885F846E847D848C849C
:100E90009B84AA84B984C884DF80EE80FD800C81A5
:100EA0001B81AA81B981CE0FD11D0FB6F894DEBF88
:0C0EB0000FBECDBFED010895F894FFCFF8
:100EBC00203132334134353642373839432A3023E6
:100ECC004425303264202F2025303264202F2025F9
:100EDC002030346400253032643A253032643A25AF
:0C0EEC0030326400494E56414C4944002D
:00000001FF
