S01700004763634170706C69636174696F6E312E737265635B
S11300000C942A000C943F000C943F000C943F0085
S11300100C943F000C943F000C943F000C943F0060
S11300200C943F000C943F000C943F000C943F0050
S11300300C943F000C943F000C943F000C943F0040
S11300400C943F000C943F000C943F000C943F0030
S11300500C943F0011241FBECFE5D8E0DEBFCDBF16
S113006010E0A0E6B0E0EAE2F4E002C005900D92F0
S1130070A03DB107D9F70E9494010C9413020C948B
S1130080000023E023BF0AC083E882BF88B78160F1
S113009088BFA89508B600FEFDCFC9019C01215078
S11300A03109892B89F713BE0895882321F088B379
S11300B0816088BB03C088B38E7F88BB88B38260AD
S11300C088BB11BA80B388B3846088BB0000000089
S11300D0000011BA80B398B39B7F98BB0895662340
S11300E021F098B3916098BB03C098B39E7F98BBEE
S11300F098B39D7F98BB82BB8FEF81BB88B384602C
S113010088BB00000000000088B38B7F88BB089583
S1130110CF93DF93C82FD62F80E00E945500882309
S1130120DCF36D2F8C2F0E946F00DF91CF91089527
S113013087B3816087BB87B3826087BB87B38460E2
S113014087BB80E190E00E94410060E080E30E9470
S11301506F0085E090E00E94410060E080E30E942F
S11301606F0081E090E00E94410060E08CE30E9417
S1130170880060E08CE00E94880060E086E00E94D5
S1130180880060E081E00E9488000895CF93DF93A7
S1130190C62F98E2899FC00D112460E082E00E947E
S11301A0880005C060E084E10E948800CD2FDFEF65
S11301B0DC0FC111F7CFDF91CF910895CF93DF9377
S11301C0FC0104C061E00E948800FE01EF01219659
S11301D080818111F7CFDF91CF910895CF93DF9381
S11301E014BA15BA44B321E030E0F90102C0EE0FAD
S11301F0FF1F8A95E2F7CF014E2B44BB95B3809540
S1130200892385BB84B3EB0124960C2E02C0220FF4
S1130210331F0A94E2F7922F9095892384BB85B308
S1130220282B25BB000081E090E00E94410023B30D
S113023030E002C035952795CA95E2F781E020FDAC
S113024080E090E0DF91CF9108950F931F93CF93B7
S1130250DF9300E010E018C0BE01C8010E94EE0068
S1130260892B49F0C801880F991F880F991F8C0F9B
S11302709D1F01960EC0219602C0C0E0D0E0C4309C
S1130280D10554F30F5F1F4F04301105B4F380E020
S113029090E0DF91CF911F910F91089522E023BF49
S11302A00AC086EF82BF88B7816088BFA89508B668
S11302B000FEFDCFC9019C0121503109892B89F72A
S11302C013BE0895EF92FF920F931F93CF93DF9382
S11302D0689F8001699F100D789F100D11249B0168
S11302E0770F440B550B60E573EC80E090E00E94BF
S11302F0D2017901C0E0D0E00DC088B3886088BB2A
S1130300C7010E944E0188B3877F88BBC7010E9442
S11303104E012196C017D10784F3DF91CF911F912D
S11303200F91FF90EF9008950E94980087B3886022
S113033087BB0E94250102C00E9425010097E1F3BA
S11303408D30910551F502C00E9425010097E1F717
S1130350C0E0D0E020C060E080E00E94C60084EBF2
S113036090E00E94DE0060E081E00E94C60081EC23
S113037090E00E94DE00FE01EE0FFF1FEE0FFF1F54
S1130380E05AFF4F60817181828193810E946201F2
S113039021960E942501892BF1F288EE93E00E94B8
S11303A04100C7CF052E97FB1EF400940E94E9017B
S11303B057FD07D00E94F10107FC03D04EF40C94C2
S11303C0E90150954095309521953F4F4F4F5F4F30
S11303D0089590958095709561957F4F8F4F9F4FAD
S11303E00895A1E21A2EAA1BBB1BFD010DC0AA1F72
S11303F0BB1FEE1FFF1FA217B307E407F50720F08A
S1130400A21BB30BE40BF50B661F771F881F991F04
S11304101A9469F760957095809590959B01AC014D
S10D0420BD01CF010895F894FFCF49
S113042A0B0201004B0201000B020100BA02010097
S113043A930201000B0201004B0201000B020100AE
S113044A10030100BA0201000B02010016040100A4
S113045A70030100BA020100930201004B02010079
S113046AA403010070030100BA0201001003010091
S113047ABA02010043757272656E7420536F6E6717
S113048A0048617070792042697274686461790005
S9030000FC
